:020000040000FA
:100000000A128A11FC2F00308A000408840A820731
:0E0010000034483465346C346C346F34003482
:100CFC0002300A128A119D260A128A110730F60058
:100D0C007D30F500F50B882EF60B882E0800F300CD
:100D1C0083120313861673080A128A113E270A12CD
:100D2C008A112930F200F20B992E00000800F40011
:100D3C0083120313861274080A128A113E270A12B0
:100D4C008A110730F3007D30F200F20BAB2EF30B5F
:100D5C00AB2E080001300A128A119D260A128A1144
:100D6C0002300A128A119D260A128A110730F600E7
:100D7C007D30F500F50BC02EF60BC02E0800F400EC
:100D8C00D72E740884000A128A1103200A128A11C1
:100D9C000A128A118D260A128A110130FF007F086F
:100DAC00F407740884000A128A1103200A128A11AB
:100DBC00003A031DE22EE32EC72E08008316031300
:100DCC000610861006151F08F03907389F004130B1
:100DDC00F800EE30F700F70BF12EF80BF12E0000B7
:100DEC000A128A119C270A128A110A128A117E266B
:100DFC000A128A1161300A128A118D260A128A117E
:100E0C0083120313061D0B2F0C2F192F86140A1295
:100E1C008A11B0260A128A1101300A128A11C526CB
:100E2C000A128A111A2F8610831203130614023029
:100E3C00F9004530F800A930F700F70B232FF80B19
:100E4C00232FF90B232F2A2F8312031306100230A2
:100E5C00F9004530F800A930F700F70B332FF80BE9
:100E6C00332FF90B332F3A2F062F0A128A11002831
:100E7C00F100711E422F432F472F831203130514C9
:100E8C004A2F831203130510F11E4D2F4E2F502F96
:100E9C008514512F8510711F542F552F572F051561
:100EAC00582F0511F11F5B2F5C2F5E2F85155F2FBF
:100EBC00851106160330F000F00B622F652F83129C
:100ECC00031306120330F000F00B6A2F6D2F711C08
:100EDC00702F712F752F831203130514782F831223
:100EEC0003130510F11C7B2F7C2F7E2F85147F2F75
:100EFC008510711D822F832F852F0515862F0511C7
:100F0C00F11D892F8A2F8C2F85158D2F8511061693
:100F1C000330F000F00B902F932F83120313061263
:100F2C000330F000F00B982F9B2F0800831603134F
:100F3C0005108510051185110612861283120313F4
:100F4C0086120612A330F6005530F500F50BAC2FC7
:100F5C00F60BAC2F02300A128A119D260A128A1146
:100F6C000430F6003D30F500F50BBA2FF60BBA2F16
:100F7C00BF2F28300A128A119D260A128A110430BA
:100F8C00F6003D30F500F50BC92FF60BC92FCE2F0F
:100F9C000C300A128A119D260A128A110430F600AE
:100FAC003D30F500F50BD82FF60BD82FDD2F063082
:100FBC000A128A119D260A128A110430F6003D305D
:100FCC00F500F50BE72FF60BE72FEC2F80300A120C
:100FDC008A119D260A128A110D30F600FB30F5009D
:100FEC00F50BF62FF60BF62FFB2F080083010A12D8
:040FFC008A11E42E44
:02400E003A3F37
:00000001FF
