:020000040000FA
:100000000A128A11FC2F00308A000408840A820731
:100010000034483465346C346C346F340D340A3435
:020020000034AA
:100EDE00831203138C1E742F752F772F1A08782FF9
:100EEE0000300800F0007008831203139900831677
:100EFE000313981C832F842F7E2F08008316031351
:100F0E0087170717181218131815403099008312F7
:100F1E0003139817831603139816831203131813CB
:100F2E0018160800F100AB2F710884000A128A11FE
:100F3E0003200A128A110A128A1179270A128A11BB
:100F4E000130FF007F08F107710884000A128A1130
:100F5E0003200A128A11003A031DB62FB72F9B2FBA
:100F6E0008008316031386100A128A1185270A12A7
:100F7E008A1101300A128A1199270A128A110A124D
:100F8E008A116F270A128A11FF007F08F200313092
:100F9E007206031DD32FD42FE32F8312031386144F
:100FAE0072080A128A1179270A128A110D300A1252
:100FBE008A1179270A128A1130307206031DE82F22
:100FCE00E92FC62F83120313861072080A128A1194
:100FDE0079270A128A110D300A128A1179270A12FC
:100FEE008A11C62F0A128A11002883010A128A1149
:020FFE00B82F0A
:02400E003A3F37
:00000001FF
