:020000040000FA
:060000000A128A11FC2F18
:100E64000A128A1140270A128A11FF007F08F00033
:100E74007008031D3E2F3F2F322F080083160313E3
:100E840011081F39031D472F482F4C2F141D4B2FBA
:100E94004C2F4E2F01304F2F0030080083160313C0
:100EA40007168715803094002830831203139400AA
:100EB4008316031391011930930008000A128A1152
:100EC40040270A128A11FF007F08F00070080319F6
:100ED4006C2F6D2F6E2F712F8316031311150800BD
:100EE4000A128A1140270A128A11FF007F08F000B3
:100EF400700803197E2F7F2F812F0130852F8316D1
:100F04000313111400300800F0000A128A1140275C
:100F14000A128A11FF007F08F1007108031D932F44
:100F2400942F872F700883120313930083160313DF
:100F340011080800F4000A128A1172270A128A1191
:100F4400FF007F08F5007508031DA92FAA2F9D2F08
:100F5400A0300A128A1186270A128A1173080A120B
:100F64008A1186270A128A1172080A128A118627A0
:100F74000A128A1174080A128A1186270A128A111F
:100F84000A128A1160270A128A11080083160313B1
:100F94000614861406118611FA010A128A115027C2
:100FA4000A128A110230F8004530F700A930F60021
:100FB400F60BDA2FF70BDA2FF80BDA2FE12F0A12E0
:100FC4008A1132270A128A110A128A1172270A1206
:100FD4008A11DD30F200CC30F300AA300A128A11F3
:100FE4009C270A128A11831203130615F82F0A127A
:0C0FF4008A11002883010A128A11C82FFC
:02400E003A3F37
:00000001FF
